:020000020000FC
:020000002FC00F
:02001800189539
:0200140018953D
:080020000C9484000C94A8006C
:04002C000C944F00E1
:1000600004E00EBF0FE50DBF1FEF9BD0CFE100E016
:100070000ABB0FEB07BB0FEF04BB02EE01BB00C0D6
:10008000E3E3E9B9E0E0E0BDE0E0EBB9E8E9EAB9D3
:10009000EEE8E0BD0DC05D9BFECFECB908951FB644
:1000A0002CB1203011F4209372002F731FBE1895CD
:1000B00000E607B906EC06B908C0F8943699FDCFFA
:1000C00095B1909373007894089595E093BF99B794
:1000D000916099BF70E092E89FBD9AE19EBD98B78C
:1000E0009B7F98BF99B7946399BF90E09BBD91E0C7
:1000F0009ABD94E697BD9FEF96BD94E19093600002
:1001000092E0909361002BC01FB6909161009230F5
:10011000C8F4E199FECF9FBB909160009EBBE09A2E
:100120009DB397BD90E09BBD95B19ABD96B190648B
:1001300096B990E09DBD9CBD86999698869B969AAF
:100140001FBE189590E09ABD90E09DBD9CBD18958E
:100150001FB67395703109F470E01FBE189581E5E4
:100160008DB9C49AC49884E002D0C49A10C08FB9E3
:10017000779BFECF8FB10895C49883E0F8DF842F7A
:10018000F6DF832FF4DF80E0F2DFC49A0895C39A8C
:10019000C2981FE315BBC3981AEF03D0C39AC29A43
:1001A00008C11A950000E9F708951D2F1770A7E6FA
:1001B000B0E0A10F1C9110936F001FEFD83020F01A
:1001C000D0311FEB08F01FE71C1B1093700017E0E5
:1001D000D83020F0D03116E008F015E0109371000F
:1001E000C19AC09860E050E010E0C298106415BB5E
:1001F000C3981AEFD6DFC39AC29A162FC298186B0B
:1002000015BBC3981AEFCDDFC39AC29AB5DF182F7A
:1002100015BBC3981AEFC5DFC39A3395303009F484
:100220004395539556FFF2CF639563FFDCCFC09A99
:10023000C19860E050E010E0C298106415BBC3980C
:100240001AEFAFDFC39AC29A162FC298186B15BB6C
:10025000C3981AEFA6DFC39AC29A8EDF783068F48B
:1002600010917100611749F4109170001F735117BC
:1002700021F410916F0010958123783070F0CF3108
:1002800061F010917100611741F4109170001F73BB
:10029000511719F410916F00812B182F15BBC398BB
:1002A0001AEF7FDFC39A3395303009F443955395A5
:1002B00056FFD3CF639563FFBDCF0895C19AC09811
:1002C00060E050E010E0C298106415BBC3981AEFCC
:1002D00068DFC39AC29A162FC298186B15BBC398D1
:1002E0001AEF5FDFC39AC29A10E015BBC3981AEFEA
:1002F00058DFC39A539556FFF7CF639563FFE1CF5D
:10030000C09AC19860E050E010E0C298106415BB3C
:10031000C3981AEF46DFC39AC29A162FC298186B79
:1003200015BBC3981AEF3DDFC39AC29A10E015BB04
:10033000C3981AEF36DFC39A539556FFF7CF6395EC
:1003400063FFE1CF0895C09AC1981AE0130FC298D5
:10035000106415BBC3981AEF24DFC39AC29A14E045
:10036000C298186B15BBC3981AEF1BDFC39AC29AC9
:10037000A2E6B0E01D9115BBC3981AEF12DFC39A35
:100380001D9115BBC3981AEF0CDFC39A1D9115BBC5
:10039000C3981AEF06DFC39A1D9115BBC3981AEFD5
:1003A00000DFC39A1D9115BBC3981AEFFADEC39AFA
:1003B0000895A2E6B0E004E10D930FEF0D9304E180
:1003C0000D930FEF0D9304E10C93A7E6B0E000E866
:1003D0000D9300E40D9300E20D9300E10D9308E00E
:1003E0000D9304E00D9302E00D9301E00C9301E006
:1003F0000093720000C000E0D02E00E0E02E08E480
:10040000F02E4BC03E2D4F2D3D0DB6DE082F0F3F79
:1004100011F477C076C018E0019F700108E4F00E77
:100420000CC00D2D0F5F02FD00E0D02E06C00D2D7B
:10043000015007FD03E0D02E00C03E2D4F2D0D2DA5
:10044000003031F0013059F0023071F0033099F092
:100450003C5F92DE082F10E1109F012D11C03C5F20
:100460008BDE082F0F700CC03B5F86DE082F10E17B
:10047000109F012D05C03B5F7FDE082F0F7000C06D
:10048000083011F404E005C014E0109F002D085F4F
:1004900000C030E0402F89DE34C0789408E0602F3F
:1004A000CC9B09C0CA9B0EC030E040E6400F7DDE09
:1004B000CE9B0FC0F4CF0830B9F3043008E0A1F3AD
:1004C00004E0F2CF003081F3043000E069F304E08F
:1004D000EBCF0430F9F00030E9F100E000C0CC9B34
:1004E00000E0CA9B04E030E048E7400FC2E05DDE78
:1004F000CE9BA3CFCD9B08E0CD9BCFE1CD9BCFCFB3
:10050000EECFC99B8ECFCB9B92CFCC9B7BCF1FEFE7
:1005100029D0F7CFD3DE30E016DFE1E0BCDD36E0F6
:1005200012DF1FEF1FD03CE00EDF01FD0EC02130B7
:1005300041F0E1E0B0DD1FEF15D030E040E735DEFF
:1005400004C002E030E04CE630DECD9B08E0CD9BFD
:10055000A6CFEBCF30E044E728DECD9B08E0CD9B73
:100560009ECFF8CF8FEF00008A95E9F71A95D1F763
:020570000895EC
:00000001FF
