:020000020000FC
:020000002FC00F
:040020000C946F00CD
:04002C000C945700D9
:1000600004E00EBF0FE50DBF7FEF7FD008C0E19920
:10007000FECFF0E02EBBFFBBE09AFDB3089500E099
:100080000ABB0FEB07BB0FEF04BB02EE01BB00C0C6
:10009000D3E3D9B9D0E0D0BDD0E0DBB9D8E9DAB943
:1000A000DEE8D0BD08C05D9BFECFDCB908951FB669
:1000B000ECB11FBE189500E607B906EC06B900C002
:1000C00090E0C3E09FBDCEBD98B79B7F98BF99B726
:1000D000946099BF94E6CAE09CBDCDBD24C01FB614
:1000E000E32ED42E3F2D40E02BD0C22FF3943E2D93
:1000F0004D2D869912D0869B06D086999698869B20
:10010000969A1FBE189595B19C9FE0019CBDCDBDF0
:1001100096B1906496B9959A08959095C0959CBDB6
:10012000CDBD9598089521E52DB9C49AC49824E0D1
:1001300002D0C49A10C02FB9779BFECF2FB108957B
:10014000C49823E0F8DF242FF6DF232FF4DF20E02C
:10015000F2DFC49A0895C39AC2982FE325BBC398CF
:100160007AEF03D0C39AC29A6CC07A950000E9F77F
:100170000895C19AC09860E0A0E6B0E050E020E0A9
:10018000C298206425BBC3987AEFEFDFC39AC29A66
:10019000262FC298286B25BBC3987AEFE6DFC39A57
:1001A000C29A2C91A395A03009F4B39525BBC398AE
:1001B0007AEFDBDFC39A539556FFF3CF639563FF66
:1001C000DDCFC09AC19860E050E020E0C298206482
:1001D00025BBC3987AEFC9DFC39AC29A262FC2986B
:1001E000286B25BBC3987AEFC0DFC39AC29A2C91C3
:1001F000A395A03009F4B39525BBC3987AEFB5DF7A
:10020000C39A3395303009F44395539556FFEFCF99
:10021000639563FFD9CF0895A0E6B0E050E0B40F36
:10022000A30FA31708F4B39522DFFC932395A3959E
:10023000A03009F4B39553955530B1F7F0E0FC9335
:100240000895789414E030E0412F50E060E0A0E69B
:10025000B0E076DF2C93A395A03009F4B3953395E5
:10026000303009F4439550E064E0560FB51789F734
:1002700050E6A51771F77DDF01D0FECF1C5F412F3F
:1002800050E060E0A0E6B0E05BDF2C93A395A030E7
:1002900009F4B3953395303009F4439550E064E0A8
:1002A000560FB51789F750E6A51771F762DF7FEF94
:0402B0005CDFE2CF5E
:00000001FF
