:020000020000FC
:020000002FC00F
:040020000C946F00CD
:04002C000C945600DA
:1000600004E00EBF0FE50DBF7FEF08C0E199FECFA2
:10007000F0E0AEBBFFBBE09AFDB3089500E00ABB21
:100080000FEB07BB0FEF04BB02EE01BB00C0D3E3D5
:10009000D9B9D0E0D0BDD0E0DBB9D8E9DAB9DEE833
:1000A000D0BD08C05D9BFECFDCB908951FB6ECB192
:1000B0001FBE189500E607B906EC06B900C093E824
:1000C000CBE09FBDCEBD98B79B7F98BF99B794609A
:1000D00099BF9FEF9BBD90E09CBD1CC0C0E01FB6C8
:1000E00095B19A3008F49AE09ABD96B1906496B9A9
:1000F000C49823E017D020E015D02C2F13D020E097
:1001000011D0C49A2DBDC39586999698869B969AD0
:100110001FBE189521E52DB9C49AC49824E002D0D9
:10012000C49A1CC02FB9779BFECF2FB10895C498F5
:1001300023E0F8DF242FF6DF232FF4DF20E0F2DFC7
:10014000C49A0895C49822E0EDDF242FEBDF232F1B
:10015000E9DF0895C49A70E561D10895C39AC29801
:100160002FE325BBC29A96C07A95000000000000DC
:1001700000000000C9F70895C49826E0D3DFC49AB0
:100180007FEFF2DF7FEFF0DF50E7450F5A2F5395F7
:100190005395539553955395D5DF68DF2F2FC2DFC5
:1001A000A3953395303009F443955A17B1F7D2DF50
:1001B0000895C49824E0B6DFC49A7FEFD5DFC19AD2
:1001C000C09860E050E020E0C298206425BBC3984E
:1001D0007AEFCADFC39AC29A262FC298286B25BB32
:1001E000C3987AEFC1DFC39AC29AA1DF222F25BB41
:1001F000C3987AEFB9DFC39A3395303009F4439549
:10020000539556FFF2CF639563FFDCCFC09AC19838
:1002100060E050E020E0C298206425BBC3987AEFEC
:10022000A3DFC39AC29A262FC298286B25BBC39816
:100230007AEF9ADFC39AC29A7ADF222F25BBC3983E
:100240007AEF92DFC39A3395303009F44395539592
:1002500056FFF2CF639563FFDCCF089530E040E7AF
:1002600060E050E0C49826E05DDFC49A7FEF7CDF59
:100270007FEF7ADF67DF000020E054DF3395303016
:1002800009F44395539556FFF7CF64DF639564FFF8
:10029000E8CF089549C03AE643E0ADE26DDF34E6C9
:1002A00043E0A6E469DF3EE543E0A4E665DF37E529
:1002B00043E0A4E161DF30E543E0A5E55DDF3AE23C
:1002C00043E0A5E559DF33E243E0A4E155DF3CE13B
:1002D00043E0AAE551DF36E143E0A4E14DDF3FE032
:1002E00043E0A0E049DF39E043E0A4E645DF3AEE31
:1002F00042E0ACE341DF33EE42E0A4E13DDF3CED20
:1003000042E0A1E439DF35ED42E0AFE535DF3FEC17
:1003100042E0A8E231DF39EC42E0A6E42DDF33EC25
:1003200042E0A1E429DF7AC000E0D02E00E0E02E18
:1003300008E4F02E1CC04BC03E2D4F2D3D0DF7DEC6
:10034000022F0F3F11F461C060C018E0019F7001DF
:1003500008E4F00E0CC00D2D0F5F02FD00E0D02E62
:1003600006C00D2D015007FD03E0D02E00C03E2D2C
:100370004F2D0D2D003031F0013059F0023071F069
:10038000033099F03C5FD3DE022F10E1109F012D66
:1003900011C03C5FCCDE022F0F700CC03B5FC7DE8C
:1003A000022F10E1109F012D05C03B5FC0DE022F20
:1003B0000F7000C0083011F404E005C014E0109F75
:1003C000002D085F00C030E0402FF3DE1EC0C4984F
:1003D00026E0A8DEC49A7FEFC7DEB4E021E04B0F31
:1003E0003B19B12FB770183020F0103108F030549D
:1003F0003054B03019F0220FBA95FBCFB22F97DEF0
:10040000B223A0DE2B2F8EDEA5DEC99BA4CFCB9B13
:10041000A8CFCC9B91CF7FEFA7DEF7CF2FEF0000C7
:0A0420002A95E9F77A95D1F70895BF
:00000001FF
