:020000020000FC
:020000002FC00F
:02001800189539
:0200140018953D
:080020000C9483000C94A7006E
:04002C000C944F00E1
:1000600004E00EBF0FE50DBF1FEF9AD0DFEF00E0F9
:100070000ABB0FEB07BB0FEF04BB02EE01BB00C0D6
:10008000E3E3E9B9E0E0E0BDE0E0EBB9E8E9EAB9D3
:10009000EEE8E0BD0CC05D9BFECFECB908951FB645
:1000A0002CB1203011F4209372001FBE189500E689
:1000B00007B906EC06B908C0F8943699FDCF95B19A
:1000C000909373007894089595E093BF99B79160E9
:1000D00099BF70E092E89FBD9AE19EBD98B79B7F63
:1000E00098BF99B7946399BF90E09BBD91E09ABD8A
:1000F00094E697BD9FEF96BD94E19093600092E0E7
:10010000909361002BC01FB6909161009230C8F4AB
:10011000E199FECF9FBB909160009EBBE09A9DB39A
:1001200097BD90E09BBD95B19ABD96B1906496B98C
:1001300090E09DBD9CBD86999698869B969A1FBE21
:10014000189590E09ABD90E09DBD9CBD18951FB696
:100150007395703109F470E01FBE189581E58DB973
:10016000C49AC49884E002D0C49A10C08FB9779B17
:10017000FECF8FB10895C49883E0F8DF842FF6DFB7
:10018000832FF4DF80E0F2DFC49A0895C39AC29807
:100190001FE315BBC3981AEF03D0C39AC29A10C1CC
:1001A0001A950000E9F7089510917400C12F177097
:1001B000A7E6B0E0A10F1C9110936F001FEFC830AD
:1001C00020F0C0311FEB08F01FE7C09175001C1B29
:1001D00010937000C091740017E0C83020F0C03157
:1001E00016E008F015E010937100C19AC09860E025
:1001F00050E010E0C298106415BBC3981AEFD0DF2E
:10020000C39AC29A162FC298186B15BBC3981AEFDF
:10021000C7DFC39AC29AAFDF182F15BBC3981AEF76
:10022000BFDFC39A3395303009F44395539556FF99
:10023000F2CF639563FFDCCFC09AC19860E050E0D5
:1002400010E0C298106415BBC3981AEFA9DFC39AD7
:10025000C29A162FC298186B15BBC3981AEFA0DF6D
:10026000C39AC29A88DF783068F4109171006117E0
:1002700049F4109170001F73511721F410916F0011
:1002800010958123783080F0C0917400CF3F61F0E9
:1002900010917100611741F4109170001F73511794
:1002A00019F410916F00812B182F15BBC3981AEF0A
:1002B00077DFC39A3395303009F44395539556FF51
:1002C000D1CF639563FFBBCF0895C19AC09860E01A
:1002D00050E010E0C298106415BBC3981AEF60DFBD
:1002E000C39AC29A162FC298186B15BBC3981AEFFF
:1002F00057DFC39AC29A10E015BBC3981AEF50DFBC
:10030000C39A539556FFF7CF639563FFE1CFC09A29
:10031000C19860E050E010E0C298106415BBC3982B
:100320001AEF3EDFC39AC29A162FC298186B15BBFC
:10033000C3981AEF35DFC39AC29A10E015BBC39871
:100340001AEF2EDFC39A539556FFF7CF639563FFDD
:10035000E1CF0895C09AC1981AE0130FC2981064B3
:1003600015BBC3981AEF1CDFC39AC29A14E0C29857
:10037000186B15BBC3981AEF13DFC39AC29AA2E693
:10038000B0E01D9115BBC3981AEF0ADFC39A1D9107
:1003900015BBC3981AEF04DFC39A1D9115BBC39810
:1003A0001AEFFEDEC39A1D9115BBC3981AEFF8DE53
:1003B000C39A1D9115BBC3981AEFF2DEC39A089534
:1003C000A2E6B0E004E10D930FEF0D9304E10D936D
:1003D0000FEF0D9304E10C93A7E6B0E000E80D9356
:1003E00000E40D9300E20D9300E10D9308E00D93FE
:1003F00004E00D9302E00D9301E00C9301E0009303
:10040000720000C000E000937A0000E000937600E4
:1004100008E4009377000FEF0093780000937900D1
:10042000009375000FEF00937400C7C03091760001
:100430004091770000917A00300F9DDE082F0F3F2A
:1004400009F41EC118E0019F009276001092770017
:1004500008E450917700500F509377000091770097
:10046000109176001A5F87DE80937400E82FE068B1
:100470001F5F81DE80937500E82FE06410C000915B
:100480007A000F5F02FD00E000937A0008C000913F
:100490007A00015007FD03E000937A0000C030911C
:1004A00076004091770000917A00003031F0013001
:1004B00059F0023071F0033099F03C5F5CDE082F98
:1004C00010E1109F012D11C03C5F55DE082F0F7009
:1004D0000CC03B5F50DE082F10E1109F012D05C0BE
:1004E0003B5F49DE082F0F7000C0083011F404E0B4
:1004F00005C014E0109F002D085F04C030E0402FBD
:1005000053DEBEC050917A00503031F05130E1F0EE
:10051000523091F0533041F0509174006091780066
:100520006F5F5617C9F02BC050917500609179002C
:100530006F5F5617C1F023C050917400609178002E
:100540006150561749F01BC05091750050917900C9
:100550006150561741F013C05091750050917900C9
:10056000561741F00CC050917400609178005617F6
:1005700009F005C051E050937B00005EBFCF50E012
:1005800050937B00BBCF00917B00013009F078C015
:10059000E0E081DD30E04CE507DE1FEF9ED01FEF8D
:1005A0009CD01FEF9AD01FEF98D01FEF96D01FEF6F
:1005B00094D01FEF92D00C942703789408E0602F1A
:1005C000CC9B09C0CA9B0EC030E040E6400FECDD7A
:1005D000CE9B0FC0F4CF0830B9F3043008E0A1F38C
:1005E00004E0F2CF003081F3043000E069F304E06E
:1005F000EBCF043061F0003011F000E028C030E0B3
:1006000044E7D2DDCD9B08E0CD9BD9CFF8CF5DDEAE
:1006100030E0A0DEE1E03FDD36E09CDE1FEF5DD0A4
:100620003CE098DE01FD0EC0213041F0E1E033DD19
:100630001FEF53D030E040E7B7DD04C002E030E008
:100640004CE6B2DDCD9B08E0CD9BB9CFEBCFCC9B88
:1006500000E0CA9B04E030E048E7400FA5DDCE9BF8
:10066000D8E4CE9B05C0CD9B08E0CD9BA8CFEFCFB3
:10067000003009F001C013CF30917600409177002F
:10068000C99BFDCECB9B03CFCC9BD0CECE9B7BCF4B
:1006900010917200103099F430E048E585DD1FEFCD
:1006A0001CD01FEF1AD01FEF18D01FEF16D01FEF6E
:1006B00014D01FEF12D01FEF10D00C94270314E6B4
:1006C0000CD0E03820F02F73E093780005C0E030C4
:1006D00019F02F73E0937900E2CE8FEF00008A9536
:0806E000E9F71A95D1F708951E
:00000001FF
