:020000020000FC
:020000002FC00F
:040020000C947000CC
:04002C000C945700D9
:1000600004E00EBF0FE50DBF7FEF79D008C0E19926
:10007000FECFF0E02EBBFFBBE09AFDB3089500E099
:100080000ABB0FEB07BB0FEF04BB02EE01BB00C0C6
:10009000D3E3D9B9D0E0D0BDD0E0DBB9D8E9DAB943
:1000A000DEE8D0BD08C05D9BFECFDCB908951FB669
:1000B000ECB11FBE189500E607B906EC06B900C002
:1000C00093E8CBE09FBDCEBD98B79B7F98BF99B713
:1000D000946099BF9FEF9BBD90E09CBD1CC0C0E0A9
:1000E0001FB695B19A3008F49AE09ABD96B1906423
:1000F00096B9C49823E017D020E015D02C2F13D048
:1001000020E011D0C49A2DBDC39586999698869B00
:10011000969A1FBE189521E52DB9C49AC49824E07B
:1001200002D0C49A12C02FB9779BFECF2FB1089589
:10013000F894C49823E0F7DF242FF5DF232FF3DFB3
:1001400020E0F1DFC49A78940895C39AC2982FE30F
:1001500025BBC3987AEF03D0C39AC29A6CC07A9534
:100160000000E9F70895C19AC09860E0A0E6B0E009
:1001700050E020E0C298206425BBC3987AEFEFDFFF
:10018000C39AC29A262FC298286B25BBC3987AEFD0
:10019000E6DFC39AC29A2C91A395A03009F4B395D7
:1001A00025BBC3987AEFDBDFC39A539556FFF3CF95
:1001B000639563FFDDCFC09AC19860E050E020E016
:1001C000C298206425BBC3987AEFC9DFC39AC29A4C
:1001D000262FC298286B25BBC3987AEFC0DFC39A3D
:1001E000C29A2C91A395A03009F4B39525BBC3986E
:1001F0007AEFB5DFC39A3395303009F443955395C0
:1002000056FFEFCF639563FFD9CF0895A0E6B0E026
:1002100050E0B40FA30FA31708F4B39528DFFC93A5
:100220002395A395A03009F4B39553955530B1F7B4
:10023000F0E0FC930895789400E850E060E020E05E
:10024000A0E6B0E02C93A395A03009F4B3955395A4
:100250005030C1F763956430A9F73AE643E02DE2E8
:10026000D5DF34E643E026E4D1DF3EE543E024E693
:10027000CDDF37E543E024E1C9DF30E543E025E5A4
:10028000C5DF3AE243E025E5C1DF33E243E024E1A4
:10029000BDDF3CE143E02AE5B9DF36E143E024E19C
:1002A000B5DF3FE043E020E0B1DF39E043E024E6A2
:1002B000ADDF3AEE42E02CE3A9DF33EE42E024E189
:1002C000A5DF3CED42E021E4A1DF35ED42E02FE582
:1002D0009DDF3FEC42E028E299DF39EC42E026E482
:1002E00095DF33EC42E021E491DF602FCC9B0FC01F
:1002F000CA9B14C0062FCE9B18C030EF360F42E0C9
:10030000361708F4439525EF81DF2DDF96CF60384F
:1003100089F3603460E871F360E4ECCF603051F34E
:10032000603460E039F360E4E5CF603819F06034A0
:10033000E9F0AFC030E040E050E060E0A0E6B0E0BF
:10034000F7DE2C93A395A03009F4B39533953030A4
:1003500009F4439550E064E0560FB51789F750E66D
:10036000A51771F700DFCD9BC8CFE4CF50E060E068
:1003700020E0A0E6B0E02C93A395A03009F4B3955B
:1003800053955030C1F763956430A9F734E243E0E8
:1003900021EE3CDFE8DED1E486DE3EE143E021EE03
:1003A00035DFE1DE6FEF7FEFDADE5A955030D9F7B7
:1003B00038E143E021EE2ADFD6DE01FD02C0E13460
:1003C000B9F502E050E060E020E0A0E6B0E02C9358
:1003D000A395A03009F4B39553955030C1F76395B8
:1003E0006430A9F734E243E02AE010DF3EE143E065
:1003F00026E40CDF38E143E021E408DF32E143E0AA
:1004000021E404DF3CE043E024E100DF36E043E0A8
:100410002AE0FCDE30E043E02FE5F8DE3AE341E09D
:1004200024E1F4DEA0DECD9B00E8CD9B66CFC5CFF6
:1004300034E243E021E4EADE3EE143E026E4E6DEA6
:1004400038E143E021E4E2DE32E143E02EEBDEDEA0
:100450003CE043E02AE0DADE36E043E026E4D6DEA4
:1004600030E043E021E4D2DE3AE341E021E4CEDEB5
:1004700034E341E024E1CADE3EE241E02AE0C6DEA8
:1004800038E241E02FE5C2DE32E241E024E1BEDEA7
:10049000C9CF50E060E020E0A0E6B0E02C93A39547
:1004A000A03009F4B39553955030C1F7639564308B
:1004B000A9F734E643E02DE2A9DE3EE543E024E17E
:1004C000A5DE38E543E020E0A1DE32E543E021E4AB
:1004D0009DDE3CE443E02EEB99DE36E443E02AE582
:1004E00095DE34E243E020E091DE3EE143E027E3A5
:1004F0008DDE38E143E024E189DE32E143E023E7A9
:1005000085DE3CE043E020E081DE36E043E021E4AC
:100510007DDE30E043E02FE079DE3AE341E025E59F
:1005200075DE34E341E024E171DE3EE241E02EEB92
:100530006DDE38E241E02FE569DE15DECD9B00E897
:06054000CD9BDBCEA6CF2F
:00000001FF
