:020000020000FC
:020000002FC00F
:02001800189539
:0200140018953D
:080020000C9484000C94A8006C
:04002C000C944F00E1
:1000600004E00EBF0FE50DBF1FEF9BD0DFEF00E0F8
:100070000ABB0FEB07BB0FEF04BB02EE01BB00C0D6
:10008000E3E3E9B9E0E0E0BDE0E0EBB9E8E9EAB9D3
:10009000EEE8E0BD0DC05D9BFECFECB908951FB644
:1000A0002CB1203011F4209372002F731FBE1895CD
:1000B00000E607B906EC06B908C0F8943699FDCFFA
:1000C00095B1909373007894089595E093BF99B794
:1000D000916099BF70E092E89FBD9AE19EBD98B78C
:1000E0009B7F98BF99B7946399BF90E09BBD91E0C7
:1000F0009ABD94E697BD9FEF96BD94E19093600002
:1001000092E0909361002BC01FB6909161009230F5
:10011000C8F4E199FECF9FBB909160009EBBE09A2E
:100120009DB397BD90E09BBD95B19ABD96B190648B
:1001300096B990E09DBD9CBD86999698869B969AAF
:100140001FBE189590E09ABD90E09DBD9CBD18958E
:100150001FB67395703109F470E01FBE189581E5E4
:100160008DB9C49AC49884E002D0C49A10C08FB9E3
:10017000779BFECF8FB10895C49883E0F8DF842F7A
:10018000F6DF832FF4DF80E0F2DFC49A0895C39A8C
:10019000C2981FE315BBC3981AEF03D0C39AC29A43
:1001A00008C11A950000E9F708951C2F1770A7E6FB
:1001B000B0E0A10F1C9110936F001FEFC83020F02A
:1001C000C0311FEB08F01FE71D1B1093700017E0F4
:1001D000C83020F0C03116E008F015E0109371002F
:1001E000C19AC09860E050E010E0C298106415BB5E
:1001F000C3981AEFD6DFC39AC29A162FC298186B0B
:1002000015BBC3981AEFCDDFC39AC29AB5DF182F7A
:1002100015BBC3981AEFC5DFC39A3395303009F484
:100220004395539556FFF2CF639563FFDCCFC09A99
:10023000C19860E050E010E0C298106415BBC3980C
:100240001AEFAFDFC39AC29A162FC298186B15BB6C
:10025000C3981AEFA6DFC39AC29A8EDF783068F48B
:1002600010917100611749F4109170001F735117BC
:1002700021F410916F0010958123783070F0DF3FEA
:1002800061F010917100611741F4109170001F73BB
:10029000511719F410916F00812B182F15BBC398BB
:1002A0001AEF7FDFC39A3395303009F443955395A5
:1002B00056FFD3CF639563FFBDCF0895C19AC09811
:1002C00060E050E010E0C298106415BBC3981AEFCC
:1002D00068DFC39AC29A162FC298186B15BBC398D1
:1002E0001AEF5FDFC39AC29A10E015BBC3981AEFEA
:1002F00058DFC39A539556FFF7CF639563FFE1CF5D
:10030000C09AC19860E050E010E0C298106415BB3C
:10031000C3981AEF46DFC39AC29A162FC298186B79
:1003200015BBC3981AEF3DDFC39AC29A10E015BB04
:10033000C3981AEF36DFC39A539556FFF7CF6395EC
:1003400063FFE1CF0895C09AC1981AE0130FC298D5
:10035000106415BBC3981AEF24DFC39AC29A14E045
:10036000C298186B15BBC3981AEF1BDFC39AC29AC9
:10037000A2E6B0E01D9115BBC3981AEF12DFC39A35
:100380001D9115BBC3981AEF0CDFC39A1D9115BBC5
:10039000C3981AEF06DFC39A1D9115BBC3981AEFD5
:1003A00000DFC39A1D9115BBC3981AEFFADEC39AFA
:1003B0000895A2E6B0E004E10D930FEF0D9304E180
:1003C0000D930FEF0D9304E10C93A7E6B0E000E866
:1003D0000D9300E40D9300E20D9300E10D9308E00E
:1003E0000D9304E00D9302E00D9301E00C9301E006
:1003F0000093720000C000E000937A0008E00093D0
:10040000760008E40093770000E000937800009302
:10041000790037C0AFC030917600409177000091ED
:100420007A00300FA9DE082F0F3F11F4E0C0DFC0C3
:1004300018E0019F009276001092770008E4C091C6
:100440007700C00FC093770000917700109176007D
:100450001A5F92DE809374001F5F8EDE80937500BA
:1004600010C000917A000F5F02FD00E000937A0057
:1004700008C000917A00015007FD03E000937A0064
:1004800000C0309176004091770000917A000030F2
:1004900031F0013059F0023071F0033099F03C5FD7
:1004A0006BDE082F10E1109F012D11C03C5F64DE50
:1004B000082F0F700CC03B5F5FDE082F10E1109F0C
:1004C000012D05C03B5F58DE082F0F7000C00830BB
:1004D00011F404E005C014E0109F002D085F04C073
:1004E00030E0402F62DE83C0C0917A00C03031F02E
:1004F000C130E1F0C23091F0C33041F0C0917400DE
:10050000D0917800DF5FCD17C9F02BC0C091750086
:10051000D0917900DF5FCD17C1F023C0C091740086
:10052000D0917800D150CD1749F01BC0C091750013
:10053000C0917900D150CD1741F013C0C091750022
:10054000D0917900CD1741F00CC0C0917400D091CA
:100550007800CD1709F005C0C1E0C0937B00005EB4
:10056000BFCFC0E0C0937B00BBCF00917B000130C8
:1005700009F03DC0789408E0602FCC9B09C0CA9B6D
:100580000EC030E040E6400F10DECE9B0FC0F4CF2F
:100590000830B9F3043008E0A1F304E0F2CF0030F2
:1005A00081F3043000E069F304E0EBCF0430F1F1B3
:1005B000003011F000E008C030E044E7F6DDCD9BEC
:1005C00008E0CD9BD9CFF8CFCC9B00E0CA9B04E0DC
:1005D00030E048E7400FE9DDCE9BD8E4CE9B51CF19
:1005E000CD9B08E0CD9BDFEFCD9BC6CFEDCFC99B68
:1005F00038CFCB9B3ECFCC9B0ECFF9CF1091720062
:10060000103089F430E048E5D0DD1FEF2FD01FEF28
:100610002DD01FEF2BD01FEF29D01FEF27D01FEFBA
:1006200025D01FEF23D014E621D02BCF47DE30E0BA
:100630008ADEE1E030DD36E086DE1FEF17D03CE0F9
:1006400082DE01FD0EC0213041F0E1E024DD1FEF2C
:100650000DD030E040E7A9DD04C002E030E04CE618
:10066000A4DDCD9B08E0CD9B87CFEBCF8FEF0000C3
:0A0670008A95E9F71A95D1F708956D
:00000001FF
