:020000020000FC
:020000002FC00F
:040020000C946F00CD
:04002C000C945700D9
:1000600004E00EBF0FE50DBF7FEF76D008C0E19929
:10007000FECFF0E0FFBB2EBBE09AFDB3089500E099
:100080000ABB0FEB07BB0FEF04BB02EE01BB00C0C6
:10009000D3E3D9B9D0E0D0BDD0E0DBB9D8E9DAB943
:1000A000DEE8D0BD08C05D9BFECFDCB908951FB669
:1000B000ECB11FBE189500E607B906EC06B900C002
:1000C00090E0C2E09FBDCEBD98B79B7F98BF99B727
:1000D000946099BF94E6C0E09CBDCDBD1BC01FB627
:1000E000869912D0869B06D086999698869B969A7A
:1000F0001FBE189595B19C9FE0019CBDCDBD96B1EA
:10010000906496B9959A08959095C0959CBDCDBD83
:100110009598089521E52DB9C49AC49824E002D099
:10012000C49A10C02FB9779BFECF2FB10895C49801
:1001300023E0F8DF242FF6DF232FF4DF20E0F2DFC7
:10014000C49A0895C39AC2982FE325BBC3987AEF47
:1001500003D0C39AC29A6AC07A950000E9F708955D
:10016000C19AC09860E0A0E6B0E050E020E0C298FC
:10017000206425BBC3987AEFEFDFC39AC29A262F7B
:10018000C298286B25BBC3987AEFE6DFC39AC29A60
:100190002C91A395A03009F4B39525BBC3987AEFB1
:1001A000DBDFC39A539556FFF3CF639563FFDDCF33
:1001B000C09AC19860E050E020E0C298206425BB5E
:1001C000C3987AEFC9DFC39AC29A262FC298286BC8
:1001D00025BBC3987AEFC0DFC39AC29A2C91A3952E
:1001E000A03009F4B39525BBC3987AEFB5DFC39A65
:1001F0003395303009F44395539556FFEFCF63950F
:1002000063FFD9CF0895A0E6B0E050E0B40FA30F8C
:10021000A31708F4B3952BDFFC932395A395A03087
:1002200009F4B39553955530B1F70895789400E8E3
:1002300050E060E020E0A0E6B0E02C93A395A03071
:1002400009F4B39553955030C1F763956430A9F71D
:1002500034E643E02DE2D7DF3EE543E026E4D3DF9A
:1002600038E543E024E6CFDF32E543E024E1CBDFAD
:100270003CE443E025E5C7DF34E243E025E5C3DFA6
:100280003EE143E024E1BFDF38E143E02AE5BBDFA4
:1002900032E143E024E1B7DF3CE043E020E0B3DFBC
:1002A00036E043E024E6AFDF34EE42E02CE3ABDFA0
:1002B0003EED42E024E1A7DF38ED42E021E4A3DF98
:1002C00032ED42E02FE59FDF3CEC42E028E29BDF8D
:1002D00036EC42E026E497DF30EC42E021E493DFA5
:1002E000602FCC9B0FC0CA9B14C0062FCE9B18C09A
:1002F0003AEE360F42E0361708F4439525EF83DFD8
:100300002FDF96CF603889F3603460E871F360E4E2
:10031000ECCF603051F3603460E039F360E4E5CF56
:10032000603819F06034E9F0AFC030E040E050E0F0
:1003300060E0A0E6B0E0FBDE2C93A395A03009F4CA
:10034000B3953395303009F4439550E064E0560F8F
:10035000B51789F750E6A51771F702DFCD9BC8CF17
:10036000E4CF50E060E020E0A0E6B0E02C93A3955D
:10037000A03009F4B39553955030C1F763956430BC
:10038000A9F734E243E021EE3EDFEADED1E48BDE82
:100390003EE143E021EE37DFE3DE6FEF7FEFDCDEAF
:1003A0005A955030D9F738E143E021EE2CDFD8DE02
:1003B00001FD02C0E134B9F502E050E060E020E068
:1003C000A0E6B0E02C93A395A03009F4B395539523
:1003D0005030C1F763956430A9F734E243E02AE076
:1003E00012DF3EE143E026E40EDF38E143E021E4A2
:1003F0000ADF32E143E021E406DF3CE043E024E1B0
:1004000002DF36E043E02AE0FEDE30E043E02FE5A5
:10041000FADE3AE341E024E1F6DEA2DECD9B00E81D
:10042000CD9B66CFC5CF34E243E021E4ECDE3EE174
:1004300043E026E4E8DE38E143E021E4E4DE32E1B3
:1004400043E02EEBE0DE3CE043E02AE0DCDE36E099
:1004500043E026E4D8DE30E043E021E4D4DE3AE3B2
:1004600041E021E4D0DE34E341E024E1CCDE3EE2B1
:1004700041E02AE0C8DE38E241E02FE5C4DE32E2A6
:1004800041E024E1C0DEC9CF50E060E020E0A0E61A
:10049000B0E02C93A395A03009F4B3955395503058
:1004A000C1F763956430A9F734E643E02DE2ABDE93
:1004B0003EE543E024E1A7DE38E543E020E0A3DEAB
:1004C00032E543E021E49FDE3CE443E02EEB9BDE9B
:1004D00036E443E02AE597DE34E243E020E093DEB1
:1004E0003EE143E027E38FDE38E143E024E18BDEA9
:1004F00032E143E023E787DE3CE043E020E083DEB7
:1005000036E043E021E47FDE30E043E02FE07BDEB5
:100510003AE341E025E577DE34E341E024E173DEB0
:100520003EE241E02EEB6FDE38E241E02FE56BDE8C
:0805300017DECD9BDDCEA8CF44
:00000001FF
