:020000020000FC
:020000002FC00F
:040020000C947400C8
:04002C000C945C00D4
:1000600004E00EBF0FE50DBF7FEF7BD008C0E19924
:10007000FECFF0E0FFBB2EBBE09AFDB3089500E099
:100080000ABB0FEB07BB0FEF04BB02EE01BB00C0C6
:10009000D7E6D9B9D0E0D0BDD2E0DBB9D8E9DAB93A
:1000A000DEE0D0BD0DC0D0936404DBB1D5FFFBCF43
:1000B000D0916404DCB908951FB6ECB11FBE189549
:1000C00000E607B906EC06B900C090E0C2E09FBDAB
:1000D000CEBD98B79B7F98BF99B7946099BF94E6BF
:1000E000C0E09CBDCDBD1BC01FB6869912D0869BBB
:1000F00006D086999698869B969A1FBE189595B1BC
:100100009C9FE0019CBDCDBD96B1906496B9959A37
:1001100008959095C0959CBDCDBD9598089521E515
:100120002DB9C49AC49824E002D0C49A10C02FB943
:10013000779BFECF2FB10895C49823E0F8DF242FDA
:10014000F6DF232FF4DF20E0F2DFC49A0895C39A8C
:10015000C2982FE325BBC3987AEF03D0C39AC29A03
:100160006AC07A950000E9F70895C19AC09860E0E6
:10017000A0E6B0E050E020E0C298206425BBC39820
:100180007AEFEFDFC39AC29A262FC298286B25BB5D
:10019000C3987AEFE6DFC39AC29A2C91A395A03058
:1001A00009F4B39525BBC3987AEFDBDFC39A539567
:1001B00056FFF3CF639563FFDDCFC09AC19860E02F
:1001C00050E020E0C298206425BBC3987AEFC9DFD5
:1001D000C39AC29A262FC298286B25BBC3987AEF80
:1001E000C0DFC39AC29A2C91A395A03009F4B395AD
:1001F00025BBC3987AEFB5DFC39A3395303009F445
:100200004395539556FFEFCF639563FFD9CF08957C
:10021000A0E6B0E050E0B40FA30FA31708F4B39525
:1002200026DFFC932395A395A03009F4B39553954D
:100230005530B1F7089500E050E060E020E0A0E61E
:10024000B0E02C93A395A03009F4B39553955030AA
:10025000C1F763956430A9F734E643E02DE2D8DFB7
:100260003EE543E026E4D4DF38E543E024E6D0DF92
:1002700032E543E024E1CCDF3CE443E025E5C8DFA0
:1002800034E243E025E5C4DF3EE143E024E1C0DFA2
:1002900038E143E02AE5BCDF32E143E024E1B8DFA6
:1002A0003CE043E020E0B4DF36E043E024E6B0DFAA
:1002B00034EE42E02CE3ACDF3EED42E024E1A8DF87
:1002C00038ED42E021E4A4DF32ED42E02FE5A0DF8B
:1002D0003CEC42E028E29CDF36EC42E026E498DF8A
:1002E00030EC42E021E494DF602FCC9B10C0CA9B2D
:1002F00015C0062FCE9B19D03AEE360F42E03617C6
:1003000008F4439525EF84DF30DF96CFFFCF6038C8
:1003100081F3603460E869F360E4EBCF603049F367
:10032000603460E031F360E4E4CF603819F06034A9
:1003300021F006C0CE9B0895FDCFCE9B0895FDCF42
:1003400050E060E020E0A0E6B0E02C93A395A03060
:1003500009F4B39553955030C1F763956430A9F70C
:1003600034E643E02DE254DF3EE543E024E150DF94
:1003700038E543E020E04CDF32E543E021E448DFAC
:100380003CE443E02EEB44DF36E443E02AE540DF83
:1003900034E243E020E03CDF3EE143E027E338DFA6
:1003A00038E143E024E134DF32E143E023E730DFAA
:1003B0003CE043E020E02CDF36E043E021E428DFAE
:1003C0003AE341E02FE024DF34E341E025E520DF9C
:1003D0003EE241E024E11CDF38E241E02EEB18DF91
:1003E00032E241E02FE514DFC0DECD9B0895A8CFB7
:00000001FF
