:020000020000FC
:020000002FC00F
:02001800189539
:0200140018953D
:040020000C947400C8
:04002C000C945700D9
:1000600004E00EBF0FE50DBF7FEF8BD008C0E19914
:10007000FECFF0E08EBBFFBBE09AFDB3089500E039
:100080000ABB0FEB07BB0FEF04BB02EE01BB00C0C6
:10009000D3E3D9B9D0E0D0BDD0E0DBB9D8E9DAB943
:1000A000DEE8D0BD08C05D9BFECFDCB908951FB669
:1000B000BCB11FBE189500E607B906EC06B900C032
:1000C00092E8CAE19FBDCEBD98B79B7F98BF99B714
:1000D000946399BF90E09BBD91E09ABD94E697BD73
:1000E00090E096BDC0E01FC01FB695B1C395C7BDD7
:1000F0002C2F969526FD969525FD969524FD969593
:1001000023FD969522FD969521FD96959ABD96B173
:10011000906496B990E09DBD9CBD86999698869B0B
:10012000969A1FBE189521E52DB9C49AC49824E06B
:1001300002D0C49A1CC02FB9779BFECF2FB108956F
:10014000C49823E0F8DF242FF6DF232FF4DF20E02C
:10015000F2DFC49A0895C49822E0EDDF242FEBDF8C
:10016000232FE9DF0895C49A70E5E5D10895C39A75
:10017000C2982FE325BBC3987AEF03D0C39AC29AE3
:1001800096C07A9500000000000000000000C9F74A
:100190000895C49826E0CFDFC49A7FEFF2DF7FEFA7
:1001A000F0DF50E7450F582F5395539553955395CE
:1001B0005395D1DF5CDF2F2FBEDF83953395303031
:1001C00009F443955817B1F7CEDF0895C49824E099
:1001D000B2DFC49A7FEFD5DFC19AC09860E050E0EB
:1001E00020E0C298206425BBC3987AEFCADFC39A87
:1001F000C29A262FC298286B25BBC3987AEFC1DF1D
:10020000C39AC29A9DDF222F25BBC3987AEFB9DF2C
:10021000C39A3395303009F44395539556FFF2CF86
:10022000639563FFDCCFC09AC19860E050E020E0A6
:10023000C298206425BBC3987AEFA3DFC39AC29A01
:10024000262FC298286B25BBC3987AEF9ADFC39AF2
:10025000C29A76DF222F25BBC3987AEF92DFC39A2A
:100260003395303009F44395539556FFF2CF63959B
:1002700063FFDCCF089530E040E760E050E0C498D1
:1002800026E059DFC49A7FEF7CDF7FEF7ADF63DF00
:10029000000020E050DF3395303009F4439553954A
:1002A00056FFF7CF60DF639564FFE8CF089549C03C
:1002B0003AE643E08DE26DDF34E643E086E469DF51
:1002C0003EE543E084E665DF37E543E084E161DF56
:1002D00030E543E085E55DDF3AE243E085E559DF5F
:1002E00033E243E084E155DF3CE143E08AE551DF5E
:1002F00036E143E084E14DDF3FE043E080E049DF69
:1003000039E043E084E645DF3AEE42E08CE341DF4A
:1003100033EE42E084E13DDF3CED42E081E439DF51
:1003200035ED42E08FE535DF3FEC42E088E231DF3A
:1003300039EC42E086E42DDF33EC42E081E429DF52
:100340000CC000E860E897DF30EF300F42E0301774
:1003500008F4439585EF1DDFABCF30E040E736DF93
:10036000602FCC9B07C0CA9B0CC0601761F7CE9B67
:100370000FC0F6CF0038C9F3003400E8B1F300E451
:10038000F4CF003091F3003400E079F300E4EDCFD6
:10039000003819F0003449F081C030E040E016DF49
:1003A000CD9B00E8CD9BCFCFF8CF65DF34E243E0B3
:1003B00081EEEFDE30E040E709DFD1E474DE3EE1BC
:1003C00043E081EEE6DE30E040E700DF7FEFB3D0D0
:1003D00038E143E081EEDDDE30E040E7F7DE01FDAD
:1003E00055C0B13489F134E243E081E4D2DE3EE12C
:1003F00043E086E4CEDE38E143E081E4CADE32E168
:1004000043E08EEBC6DE3CE043E08AE0C2DE36E04D
:1004100043E086E4BEDE30E043E081E4BADE3AE366
:1004200041E081E4B6DE34E341E084E1B2DE3EE265
:1004300041E08AE0AEDE38E241E08FE5AADE32E25A
:1004400041E084E1A6DE22C002E015DF34E243E0B1
:100450008AE09FDE3EE143E086E49BDE38E143E054
:1004600081E497DE32E143E081E493DE3CE043E067
:1004700084E18FDE36E043E08AE08BDE30E043E06B
:100480008FE587DE3AE341E084E183DE30E040E758
:100490009DDECD9B00E8CD9B56CFA1CFECDE34E6B0
:1004A00043E08DE276DE3EE543E084E172DE38E54E
:1004B00043E080E06EDE32E543E081E46ADE3CE466
:1004C00043E08EEB66DE36E443E08AE562DE34E24A
:1004D00043E080E05EDE3EE143E087E35ADE38E160
:1004E00043E084E156DE32E143E083E752DE3CE064
:1004F00043E080E04EDE36E043E081E44ADE30E077
:1005000043E08FE046DE3AE341E085E542DE34E356
:1005100041E084E13EDE3EE241E08EEB3ADE38E24D
:1005200041E08FE536DE30E040E750DECD9B00E86D
:10053000CD9B09CFFBCF2FEF00002A95E9F77A95E5
:04054000D1F7089552
:00000001FF
