:020000020000FC
:020000002FC00F
:040020000C947000CC
:04002C000C945700D9
:1000600004E00EBF0FE50DBF7FEF83D008C0E1991C
:10007000FECFF0E0AEBBFFBBE09AFDB3089500E019
:100080000ABB0FEB07BB0FEF04BB02EE01BB00C0C6
:10009000D3E3D9B9D0E0D0BDD0E0DBB9D8E9DAB943
:1000A000DEE8D0BD08C05D9BFECFDCB908951FB669
:1000B000ECB11FBE189500E607B906EC06B900C002
:1000C00093E8CBE09FBDCEBD98B79B7F98BF99B713
:1000D000946099BF9FEF9BBD90E09CBD1CC0C0E0A9
:1000E0001FB695B19A3008F49AE09ABD96B1906423
:1000F00096B9C49823E017D020E015D02C2F13D048
:1001000020E011D0C49A2DBDC39586999698869B00
:10011000969A1FBE189521E52DB9C49AC49824E07B
:1001200002D0C49A1CC02FB9779BFECF2FB108957F
:10013000C49823E0F8DF242FF6DF232FF4DF20E03C
:10014000F2DFC49A0895C49822E0EDDF242FEBDF9C
:10015000232FE9DF0895C49A70E5FED00895C39A6D
:10016000C2982FE325BBC3987AEF03D0C39AC29AF3
:1001700096C07A9500000000000000000000C9F75A
:100180000895C49826E0CFDFC49A7FEFF2DF7FEFB7
:10019000F0DF50E7450F5A2F5395539553955395DC
:1001A0005395D1DF64DF2F2FBEDFA3953395303019
:1001B00009F443955A17B1F7CEDF0895C49824E0A7
:1001C000B2DFC49A7FEFD5DFC19AC09860E050E0FB
:1001D00020E0C298206425BBC3987AEFCADFC39A97
:1001E000C29A262FC298286B25BBC3987AEFC1DF2D
:1001F000C39AC29A9DDF222F25BBC3987AEFB9DF3D
:10020000C39A3395303009F44395539556FFF2CF96
:10021000639563FFDCCFC09AC19860E050E020E0B6
:10022000C298206425BBC3987AEFA3DFC39AC29A11
:10023000262FC298286B25BBC3987AEF9ADFC39A02
:10024000C29A76DF222F25BBC3987AEF92DFC39A3A
:100250003395303009F44395539556FFF2CF6395AB
:1002600063FFDCCF089530E040E760E050E0C498E1
:1002700026E059DFC49A7FEF7CDF7FEF7ADF63DF10
:10028000000020E050DF3395303009F4439553955A
:1002900056FFF7CF60DF639564FFE8CF089500E075
:1002A000D02E00E0E02E08E4F02E1CC04BC03E2D06
:1002B0004F2D3D0D3DDF022F0F3F11F444C043C0D1
:1002C00018E0019F700108E4F00E0CC00D2D0F5FC7
:1002D00002FD00E0D02E06C00D2D015007FD03E009
:1002E000D02E00C03E2D4F2D0D2D003031F00130AD
:1002F00059F0023071F0033099F03C5F19DF022FA2
:1003000010E1109F012D11C03C5F12DF022F0F7012
:100310000CC03B5F0DDF022F10E1109F012D05C0C7
:100320003B5F06DF022F0F7000C0083011F404E0BD
:1003300005C014E0109F002D085F00C030E0402F82
:100340003DDF01C07894C99BC1CFCB9BC5CFCC9B6F
:10035000AECF7FEF0EDFF7CF2FEF00002A95E9F742
:060360007A95D1F7089523
:00000001FF
