:020000020000FC
:100000002FC0189518951895189518951895189546
:10001000189543C01895189537C0189518951895D8
:0C002000189518951895189518951895C6
:1000600004E00EBF0FE50DBF06E010E010BD09B9BA
:1000700002E00BB908E10AB90EE000BD09C01BB1EE
:1000800015FFFDCF0CB908951FB68CB11FBE189592
:1000900070E085E07FBD8EBD1EC01FB649B350B372
:1000A0004E7F5C71959911D0959B06D09699969844
:1000B000969B969A1FBE189575B1789FC0017CBD1E
:1000C0008DBD70EC76B9959A0895709580957CBD3C
:1000D0008DBD9598089540E04ABB4FEB47BB4FEF6D
:1000E00044BB42E641BB00C070E277B977EC76B919
:1000F00000C091E59DB9C49AC49894E002D0C49A16
:1001000010C09FB9779BFECF9FB10895C49893E02C
:10011000F8DF9A2FF6DF9B2FF4DF90E0F2DFC49A2E
:100120000895C39AC298EFE3E5BBC398D1E003D02A
:10013000C39AC29A07C0CFEFCA950000E9F7DA95D3
:0C014000D1F70895969A0000E1DFFCCF93
:00000001FF
