:020000020000FC
:100000002FC0189518951895189518951895189546
:10001000189551C01895189540C0189518951895C1
:0C002000189518951895189518951895C6
:1000600004E00EBF0FE50DBF40E04ABB4FEB47BBBE
:100070004FEF44BB42E641BB00C006E010E010BDBC
:1000800009B902E00BB908E10AB90EE000BD09C0E8
:100090001BB115FFFDCF0CB908951FB68CB11FBE63
:1000A000189570E277B977EC76B900C070E085E01A
:1000B0007FBD8EBD1EC01FB649B350B34E7F5C716D
:1000C000959911D0959B06D096999698969B969A5D
:1000D0001FBE189575B1789FC0017CBD8DBD70ECB9
:1000E00076B9959A0895709580957CBD8DBD95984B
:1000F000089591E59DB9C49AC49894E002D0C49A39
:1001000010C09FB9779BFECF9FB10895C49893E02C
:10011000F8DF9A2FF6DF9B2FF4DF90E0F2DFC49A2E
:100120000895C39AC298EFE3E5BBC39800000000AE
:10013000C39AC29A4DC0C09AC198C0E0D0E0E0E036
:10014000E86BE5BBC298C39800000000C39AC29A4E
:10015000ED2FE064E5BBC298C39800000000C39A8D
:10016000C29AD4DFE92FE8BBC39800000000C39A0D
:10017000A39560F1C395C6FFF4CFD395D3FFDFCF2E
:10018000C19AC098C0E0D0E0E0E0E86BE5BBC2985F
:10019000C39800000000C39AC29AE0E0E064E5BBA7
:1001A000C298C39800000000C39AC29AAFDFE92F3B
:1001B000E8BBC39800000000C39AA39538F0C3952C
:1001C000C6FFF4CFD395D3FFDFCF0895B39508953D
:0801D000969A00009BDFFCCFB2
:00000001FF
